:100000000BC018C017C0C5C015C014C013C012C0A3
:1000100011C010C00FC00EC011241FBECFEDCDBF48
:1000200010E0A0E6B0E001C01D92AA36B107E1F7EA
:10003000F4D1FFC1E5CF0F931F9380E090E0CED1C4
:1000400080E090E0CBD16B3971058105910518F006
:1000500083E090E00FC0062F172F282F392F0D5760
:100060001109210931090E3111052105310538F435
:1000700082E090E0909367008093660013C0B92FF0
:10008000A82F972F862F0A97A109B10983379105C9
:10009000A105B10518F481E090E0ECCF1092670063
:1000A0001092660081E090E099D1623221E07207FF
:1000B0008105910518F083E090E01EC0062F172FF0
:1000C000282F392F02501140210931090032110522
:1000D0002105310518F482E090E00EC0B92FA82F59
:1000E000972F862F0A97A109B109883F9105A1058D
:1000F000B10538F481E090E0909363008093620052
:1001000004C010926300109262001F910F91089535
:1001100080916600909167008130910549F040F030
:100120008230910541F0039759F463E070E005C017
:1001300062E070E002C061E070E080E090E0A7D093
:1001400080916200909163008130910549F040F008
:100150008230910541F0039759F463E070E005C0E7
:1001600062E070E002C061E070E081E090E08FD07A
:1001700087B3877E87BB87B38F7987BB089510BE0F
:100180008FB58B608FBD80E489BF85E08DBD78948D
:1001900008951F920F920FB60F9211242F933F9341
:1001A0004F935F936F937F938F939F93AF93BF937F
:1001B000EF93FF9321E030E080916600909167001B
:1001C000892B11F020E030E0809160009091610077
:1001D00082239323892B19F08AB38F7C02C08AB3C0
:1001E00080638ABB21E030E08091620090916300DF
:1001F000892B11F020E030E0809160009091610047
:1002000082239323892B19F08AB38F7302C08AB398
:10021000806C8ABB60E070E080E090E038D0809134
:10022000600090916100809590959093610080931B
:100230006000FF91EF91BF91AF919F918F917F915E
:100240006F915F914F913F912F910F900FBE0F9043
:100250001F9018952FE986E891E02150804090404A
:10026000E1F700C0000062E070E080E090E00FD0B5
:100270002FE986E891E0215080409040E1F700C0EE
:10028000000061E070E080E090E001D0E3CF8130D9
:10029000910559F11CF4892B49F00895823091059C
:1002A00009F441C0039709F45CC0089561307105F9
:1002B00081F038F06230710539F06330710571F00A
:1002C00008958BB38F7C0FC08BB38F7C8BBBDD9A73
:1002D00008958BB38F7C8BBBDC9A08958BB38F7C96
:1002E0008BBB8BB380638BBB08956130710581F04C
:1002F00038F06230710539F06330710571F008959E
:100300008BB38F73F0CF8BB38F738BBBDF9A089552
:100310008BB38F738BBBDE9A08958BB38F738BBBBC
:100320008BB3806CE0CF6130710581F038F06230C2
:10033000710539F06330710571F0089588B3877ED7
:1003400029C088B3877E88BBC49A089588B3877E06
:1003500088BBC39A089588B3877E88BB88B38861B9
:1003600019C06130710581F038F06230710539F0E3
:100370006330710561F0089588B38F790BC088B33D
:100380008F7988BBC69A0895C698C59A0895C6986D
:1003900088B3806688BB08958AB3806C8ABB87B3B4
:1003A000886187BB87B3806687BB8AB380638ABB5B
:1003B0008BB38F738BBBDF9A88B3877E88BBC49A5D
:1003C00088B38F7988BBC69A8BB38F7C8BBBDD9A41
:1003D000089580EA87B980E886B9089597B18F714A
:1003E000907E890F87B9369A3699FECF84B165B170
:1003F000829586958695837070E0660F771F660FED
:10040000771F680F711D882777FD8095982F0895B5
:1004100060E070E080E090E00895DBDFBDDFAFDEFC
:100420000ADE76DE83EC99E00197F1F700C0000068
:06043000F7CFF894FFCFA6
:00000001FF
